{
  "_format": "hh-sol-artifact-1",
  "contractName": "ConfidentialBomb",
  "sourceName": "contracts/ConfidentialBomb.sol",
  "abi": [
    {
      "anonymous": false,
      "inputs": [
        {
          "indexed": true,
          "internalType": "uint256",
          "name": "gameId",
          "type": "uint256"
        },
        {
          "indexed": true,
          "internalType": "address",
          "name": "player",
          "type": "address"
        },
        {
          "indexed": false,
          "internalType": "uint8",
          "name": "boardSize",
          "type": "uint8"
        },
        {
          "indexed": false,
          "internalType": "bytes32",
          "name": "commitHash",
          "type": "bytes32"
        }
      ],
      "name": "GameCreated",
      "type": "event"
    },
    {
      "anonymous": false,
      "inputs": [
        {
          "indexed": true,
          "internalType": "uint256",
          "name": "gameId",
          "type": "uint256"
        }
      ],
      "name": "GameEnded",
      "type": "event"
    },
    {
      "anonymous": false,
      "inputs": [
        {
          "indexed": true,
          "internalType": "uint256",
          "name": "gameId",
          "type": "uint256"
        },
        {
          "indexed": false,
          "internalType": "uint32[]",
          "name": "plainBoard",
          "type": "uint32[]"
        }
      ],
      "name": "GameRevealed",
      "type": "event"
    },
    {
      "anonymous": false,
      "inputs": [
        {
          "indexed": true,
          "internalType": "uint256",
          "name": "gameId",
          "type": "uint256"
        },
        {
          "indexed": false,
          "internalType": "uint256",
          "name": "seed",
          "type": "uint256"
        }
      ],
      "name": "SeedRevealed",
      "type": "event"
    },
    {
      "anonymous": false,
      "inputs": [
        {
          "indexed": true,
          "internalType": "uint256",
          "name": "gameId",
          "type": "uint256"
        },
        {
          "indexed": false,
          "internalType": "uint8",
          "name": "index",
          "type": "uint8"
        },
        {
          "indexed": false,
          "internalType": "bytes",
          "name": "isBombCiphertext",
          "type": "bytes"
        },
        {
          "indexed": false,
          "internalType": "uint32",
          "name": "openedCount",
          "type": "uint32"
        }
      ],
      "name": "TilePicked",
      "type": "event"
    },
    {
      "inputs": [
        {
          "internalType": "externalEuint32[]",
          "name": "encryptedTiles",
          "type": "bytes32[]"
        },
        {
          "internalType": "bytes",
          "name": "proof",
          "type": "bytes"
        },
        {
          "internalType": "bytes32",
          "name": "commitHash",
          "type": "bytes32"
        },
        {
          "internalType": "uint8",
          "name": "boardSize",
          "type": "uint8"
        }
      ],
      "name": "createGame",
      "outputs": [
        {
          "internalType": "uint256",
          "name": "gameId",
          "type": "uint256"
        }
      ],
      "stateMutability": "nonpayable",
      "type": "function"
    },
    {
      "inputs": [
        {
          "internalType": "uint256",
          "name": "gameId",
          "type": "uint256"
        }
      ],
      "name": "endGame",
      "outputs": [],
      "stateMutability": "nonpayable",
      "type": "function"
    },
    {
      "inputs": [],
      "name": "gameCounter",
      "outputs": [
        {
          "internalType": "uint256",
          "name": "",
          "type": "uint256"
        }
      ],
      "stateMutability": "view",
      "type": "function"
    },
    {
      "inputs": [
        {
          "internalType": "uint256",
          "name": "",
          "type": "uint256"
        }
      ],
      "name": "games",
      "outputs": [
        {
          "internalType": "address",
          "name": "player",
          "type": "address"
        },
        {
          "internalType": "uint8",
          "name": "boardSize",
          "type": "uint8"
        },
        {
          "internalType": "bytes32",
          "name": "commitHash",
          "type": "bytes32"
        },
        {
          "internalType": "uint32",
          "name": "openedCount",
          "type": "uint32"
        },
        {
          "internalType": "enum ConfidentialBomb.State",
          "name": "state",
          "type": "uint8"
        }
      ],
      "stateMutability": "view",
      "type": "function"
    },
    {
      "inputs": [
        {
          "internalType": "uint256",
          "name": "gameId",
          "type": "uint256"
        }
      ],
      "name": "getBoardSize",
      "outputs": [
        {
          "internalType": "uint8",
          "name": "",
          "type": "uint8"
        }
      ],
      "stateMutability": "view",
      "type": "function"
    },
    {
      "inputs": [
        {
          "internalType": "uint256",
          "name": "gameId",
          "type": "uint256"
        }
      ],
      "name": "getCommit",
      "outputs": [
        {
          "internalType": "bytes32",
          "name": "",
          "type": "bytes32"
        }
      ],
      "stateMutability": "view",
      "type": "function"
    },
    {
      "inputs": [
        {
          "internalType": "uint256",
          "name": "gameId",
          "type": "uint256"
        }
      ],
      "name": "getEncryptedBoardLength",
      "outputs": [
        {
          "internalType": "uint256",
          "name": "",
          "type": "uint256"
        }
      ],
      "stateMutability": "view",
      "type": "function"
    },
    {
      "inputs": [
        {
          "internalType": "uint256",
          "name": "gameId",
          "type": "uint256"
        },
        {
          "internalType": "uint256",
          "name": "index",
          "type": "uint256"
        }
      ],
      "name": "getEncryptedTile",
      "outputs": [
        {
          "internalType": "euint32",
          "name": "",
          "type": "bytes32"
        }
      ],
      "stateMutability": "view",
      "type": "function"
    },
    {
      "inputs": [
        {
          "internalType": "uint256",
          "name": "gameId",
          "type": "uint256"
        }
      ],
      "name": "getOpenedCount",
      "outputs": [
        {
          "internalType": "uint32",
          "name": "",
          "type": "uint32"
        }
      ],
      "stateMutability": "view",
      "type": "function"
    },
    {
      "inputs": [
        {
          "internalType": "uint256",
          "name": "gameId",
          "type": "uint256"
        }
      ],
      "name": "getState",
      "outputs": [
        {
          "internalType": "enum ConfidentialBomb.State",
          "name": "",
          "type": "uint8"
        }
      ],
      "stateMutability": "view",
      "type": "function"
    },
    {
      "inputs": [
        {
          "internalType": "uint256",
          "name": "gameId",
          "type": "uint256"
        },
        {
          "internalType": "uint8",
          "name": "index",
          "type": "uint8"
        }
      ],
      "name": "isOpened",
      "outputs": [
        {
          "internalType": "bool",
          "name": "",
          "type": "bool"
        }
      ],
      "stateMutability": "view",
      "type": "function"
    },
    {
      "inputs": [
        {
          "internalType": "uint256",
          "name": "gameId",
          "type": "uint256"
        },
        {
          "internalType": "uint8",
          "name": "index",
          "type": "uint8"
        }
      ],
      "name": "pickTile",
      "outputs": [],
      "stateMutability": "nonpayable",
      "type": "function"
    },
    {
      "inputs": [],
      "name": "protocolId",
      "outputs": [
        {
          "internalType": "uint256",
          "name": "",
          "type": "uint256"
        }
      ],
      "stateMutability": "pure",
      "type": "function"
    },
    {
      "inputs": [
        {
          "internalType": "uint256",
          "name": "gameId",
          "type": "uint256"
        },
        {
          "internalType": "uint32[]",
          "name": "plainBoard",
          "type": "uint32[]"
        }
      ],
      "name": "revealGame",
      "outputs": [],
      "stateMutability": "nonpayable",
      "type": "function"
    },
    {
      "inputs": [
        {
          "internalType": "uint256",
          "name": "gameId",
          "type": "uint256"
        },
        {
          "internalType": "uint256",
          "name": "seed",
          "type": "uint256"
        }
      ],
      "name": "revealSeed",
      "outputs": [],
      "stateMutability": "nonpayable",
      "type": "function"
    }
  ],
  "bytecode": "0x608060405234801561000f575f5ffd5b5061018a6100ae604080516080810182525f80825260208201819052918101829052606081019190915250604080516080810182527350157cffd6bbfa2dece204a89ec419c23ef5755d815273cd3ab3bd6bcc0c0bf3e27912a92043e817b1cf69602082015273a02cda4ca3a71d7c46997716f4283aa851c2881291810191909152731364cbbf2cdf5032c47d8226a6f6fbd2afcdacac606082015290565b80517f9e7b61f58c47dc699ac88507c4f5bb9f121c03808c5676a8078fe583e464970080546001600160a01b03199081166001600160a01b039384161790915560208301517f9e7b61f58c47dc699ac88507c4f5bb9f121c03808c5676a8078fe583e46497018054831691841691909117905560408301517f9e7b61f58c47dc699ac88507c4f5bb9f121c03808c5676a8078fe583e46497028054831691841691909117905560608301517f9e7b61f58c47dc699ac88507c4f5bb9f121c03808c5676a8078fe583e46497038054909216921691909117905550565b611517806101975f395ff3fe608060405234801561000f575f5ffd5b50600436106100f0575f3560e01c80637b4936c411610093578063cec07cec11610063578063cec07cec146102ac578063d0399bb8146102e9578063da1f12ab146102fc578063fcdbb8af14610304575f5ffd5b80637b4936c414610236578063a50e51991461024b578063a874ec591461025e578063cb94d49e14610299575f5ffd5b806323d18968116100ce57806323d18968146101be5780632e0be39a146101d157806344c9af28146101d9578063558b685214610213575f5ffd5b80630be8f9aa146100f45780630d7653951461011a578063117a5b9014610156575b5f5ffd5b610107610102366004611149565b610326565b6040519081526020015b60405180910390f35b61014661012836600461117e565b5f82815260026020526040902054600160ff83161b16151592915050565b6040519015158152602001610111565b6101ad6101643660046111a8565b60016020525f90815260409020805460028201546003909201546001600160a01b0382169260ff600160a01b909304831692909163ffffffff8116916401000000009091041685565b6040516101119594939291906111e7565b6101076101cc366004611268565b6103a6565b6101075f5481565b6102066101e73660046111a8565b5f90815260016020526040902060030154640100000000900460ff1690565b604051610111919061131e565b6101076102213660046111a8565b5f908152600160208190526040909120015490565b61024961024436600461132c565b6106ee565b005b61024961025936600461117e565b61083a565b61028761026c3660046111a8565b5f90815260016020526040902054600160a01b900460ff1690565b60405160ff9091168152602001610111565b6102496102a7366004611149565b610aae565b6102d46102ba3660046111a8565b5f9081526001602052604090206003015463ffffffff1690565b60405163ffffffff9091168152602001610111565b6102496102f73660046111a8565b610c30565b612711610107565b6101076103123660046111a8565b5f9081526001602052604090206002015490565b5f8281526001602052604081208054600160a01b900460ff16831061037e5760405162461bcd60e51b8152602060048201526009602482015268084c2c840d2dcc8caf60bb1b60448201526064015b60405180910390fd5b80600101838154811061039357610393611374565b905f5260205f2001549150505b92915050565b5f5f8260ff16116103f95760405162461bcd60e51b815260206004820152601260248201527f496e76616c696420626f6172642073697a6500000000000000000000000000006044820152606401610375565b60ff8216861461044b5760405162461bcd60e51b815260206004820152601360248201527f426f6172642073697a65206d69736d61746368000000000000000000000000006044820152606401610375565b826104985760405162461bcd60e51b815260206004820152600c60248201527f456d70747920636f6d6d697400000000000000000000000000000000000000006044820152606401610375565b5f8260ff1667ffffffffffffffff8111156104b5576104b5611388565b6040519080825280602002602001820160405280156104de578160200160208202803683370190505b5090505f5b8360ff16811015610584575f6105468a8a8481811061050457610504611374565b9050602002013589898080601f0160208091040260200160405190810160405280939291908181526020018383808284375f92019190915250610d3a92505050565b905061055181610d4e565b5061055c8133610d5d565b508083838151811061057057610570611374565b6020908102919091010152506001016104e3565b505f5f8154610592906113b0565b91829055506040805160c08101825233815260ff86166020820152908101839052606081018690525f608082018190529193509060a08201525f83815260016020818152604092839020845181548684015160ff16600160a01b027fffffffffffffffffffffff0000000000000000000000000000000000000000009091166001600160a01b039092169190911717815592840151805161063a9385019291909101906110f5565b5060608201516002820155608082015160038201805463ffffffff90921663ffffffff1983168117825560a08501519264ffffffffff19161764010000000083600181111561068b5761068b6111bf565b021790555050505f82815260026020908152604080832092909255815160ff86168152908101869052339184917f9b5f65613c152e8f87eeb5087336d0720fddec7358ab047492a3e6a4719da85a910160405180910390a3509695505050505050565b5f83815260016020526040902080546001600160a01b031633146107445760405162461bcd60e51b815260206004820152600d60248201526c4e6f7420796f75722067616d6560981b6044820152606401610375565b60016003820154640100000000900460ff166001811115610767576107676111bf565b146107a05760405162461bcd60e51b8152602060048201526009602482015268115b9908199a5c9cdd60ba1b6044820152606401610375565b8054600160a01b900460ff1682146107fa5760405162461bcd60e51b815260206004820152600d60248201527f53697a65206d69736d61746368000000000000000000000000000000000000006044820152606401610375565b837f403f19ed10442511d95a4b4146ccc435952cb27bba78303b17a01ee8407cac72848460405161082c9291906113c8565b60405180910390a250505050565b5f828152600160205260408120906003820154640100000000900460ff166001811115610869576108696111bf565b146108b65760405162461bcd60e51b815260206004820152600a60248201527f47616d6520656e646564000000000000000000000000000000000000000000006044820152606401610375565b80546001600160a01b031633146108ff5760405162461bcd60e51b815260206004820152600d60248201526c4e6f7420796f75722067616d6560981b6044820152606401610375565b805460ff600160a01b9091048116908316106109495760405162461bcd60e51b8152602060048201526009602482015268084c2c840d2dcc8caf60bb1b6044820152606401610375565b5f83815260026020526040902054600160ff84161b808216156109ae5760405162461bcd60e51b815260206004820152600e60248201527f416c7265616479206f70656e65640000000000000000000000000000000000006044820152606401610375565b5f858152600260205260408120838317905560018401805460ff87169081106109d9576109d9611374565b905f5260205f20015490505f6109f8826109f36001610d6f565b610d81565b6003860180549192506001915f90610a1790849063ffffffff16611415565b92506101000a81548163ffffffff021916908363ffffffff1602179055505f81604051602001610a4991815260200190565b60408051601f1981840301815290829052600388015490925089917f20d672e92f8b0f858e55f033f2a479d03ea1b66d505367546b096f478a9262e291610a9c918b91869163ffffffff9091169061145f565b60405180910390a25050505050505050565b5f82815260016020526040902080546001600160a01b03163314610b045760405162461bcd60e51b815260206004820152600d60248201526c4e6f7420796f75722067616d6560981b6044820152606401610375565b60016003820154640100000000900460ff166001811115610b2757610b276111bf565b14610b605760405162461bcd60e51b8152602060048201526009602482015268115b9908199a5c9cdd60ba1b6044820152606401610375565b805460408051602081018590526001600160a01b03831691810191909152600160a01b90910460ff1660608201525f9060800160405160208183030381529060405280519060200120905081600201548114610bfe5760405162461bcd60e51b815260206004820152600f60248201527f436f6d6d6974206d69736d6174636800000000000000000000000000000000006044820152606401610375565b837f6ea81813eb74150321f70c7042dd54943d3d56e95b59bc3e7cd62a8f7622f98d8460405161082c91815260200190565b5f81815260016020526040902080546001600160a01b03163314610c865760405162461bcd60e51b815260206004820152600d60248201526c4e6f7420796f75722067616d6560981b6044820152606401610375565b5f6003820154640100000000900460ff166001811115610ca857610ca86111bf565b14610cf55760405162461bcd60e51b815260206004820152600d60248201527f416c726561647920656e646564000000000000000000000000000000000000006044820152606401610375565b60038101805464ff00000000191664010000000017905560405182907fce24807f7e4b60b4e641462f13029fa5e5f79075bbc3f8e5cd43ecd19661d760905f90a25050565b5f610d4783836004610daf565b9392505050565b5f610d598230610ecf565b5090565b5f610d688383610ecf565b5090919050565b5f6103a08263ffffffff166004610f58565b5f82610d9357610d905f610d6f565b92505b81610da457610da15f610d6f565b91505b610d4783835f611015565b7f9e7b61f58c47dc699ac88507c4f5bb9f121c03808c5676a8078fe583e46497015460405163196d0b9b60e01b81525f917f9e7b61f58c47dc699ac88507c4f5bb9f121c03808c5676a8078fe583e4649700916001600160a01b039091169063196d0b9b90610e289088903390899089906004016114a0565b6020604051808303815f875af1158015610e44573d5f5f3e3d5ffd5b505050506040513d601f19601f82011682018060405250810190610e6891906114df565b8154604051630f8e573b60e21b8152600481018390523360248201529193506001600160a01b031690633e395cec906044015f604051808303815f87803b158015610eb1575f5ffd5b505af1158015610ec3573d5f5f3e3d5ffd5b50505050509392505050565b5f7f9e7b61f58c47dc699ac88507c4f5bb9f121c03808c5676a8078fe583e46497008054604051635ca4b5b160e11b8152600481018690526001600160a01b03858116602483015292935091169063b9496b62906044015f604051808303815f87803b158015610f3d575f5ffd5b505af1158015610f4f573d5f5f3e3d5ffd5b50505050505050565b7f9e7b61f58c47dc699ac88507c4f5bb9f121c03808c5676a8078fe583e464970154604051639cd07acb60e01b81525f917f9e7b61f58c47dc699ac88507c4f5bb9f121c03808c5676a8078fe583e4649700916001600160a01b0390911690639cd07acb90610fcd90879087906004016114f6565b6020604051808303815f875af1158015610fe9573d5f5f3e3d5ffd5b505050506040513d601f19601f8201168201806040525081019061100d91906114df565b949350505050565b5f5f82156110285750600160f81b61102b565b505f5b5f7f9e7b61f58c47dc699ac88507c4f5bb9f121c03808c5676a8078fe583e4649700600181015460405163f77f3f1d60e01b815260048101899052602481018890527fff00000000000000000000000000000000000000000000000000000000000000851660448201529192506001600160a01b03169063f77f3f1d906064016020604051808303815f875af11580156110c7573d5f5f3e3d5ffd5b505050506040513d601f19601f820116820180604052508101906110eb91906114df565b9695505050505050565b828054828255905f5260205f2090810192821561112e579160200282015b8281111561112e578251825591602001919060010190611113565b50610d599291505b80821115610d59575f8155600101611136565b5f5f6040838503121561115a575f5ffd5b50508035926020909101359150565b803560ff81168114611179575f5ffd5b919050565b5f5f6040838503121561118f575f5ffd5b8235915061119f60208401611169565b90509250929050565b5f602082840312156111b8575f5ffd5b5035919050565b634e487b7160e01b5f52602160045260245ffd5b600281106111e3576111e36111bf565b9052565b6001600160a01b038616815260ff851660208201526040810184905263ffffffff8316606082015260a081016110eb60808301846111d3565b5f5f83601f840112611230575f5ffd5b50813567ffffffffffffffff811115611247575f5ffd5b6020830191508360208260051b8501011115611261575f5ffd5b9250929050565b5f5f5f5f5f5f6080878903121561127d575f5ffd5b863567ffffffffffffffff811115611293575f5ffd5b61129f89828a01611220565b909750955050602087013567ffffffffffffffff8111156112be575f5ffd5b8701601f810189136112ce575f5ffd5b803567ffffffffffffffff8111156112e4575f5ffd5b8960208284010111156112f5575f5ffd5b602091909101945092506040870135915061131260608801611169565b90509295509295509295565b602081016103a082846111d3565b5f5f5f6040848603121561133e575f5ffd5b83359250602084013567ffffffffffffffff81111561135b575f5ffd5b61136786828701611220565b9497909650939450505050565b634e487b7160e01b5f52603260045260245ffd5b634e487b7160e01b5f52604160045260245ffd5b634e487b7160e01b5f52601160045260245ffd5b5f600182016113c1576113c161139c565b5060010190565b602080825281018290525f8360408301825b8581101561140b57823563ffffffff81168082146113f6575f5ffd5b835250602092830192909101906001016113da565b5095945050505050565b63ffffffff81811683821601908111156103a0576103a061139c565b5f81518084528060208401602086015e5f602082860101526020601f19601f83011685010191505092915050565b60ff84168152606060208201525f61147a6060830185611431565b905063ffffffff83166040830152949350505050565b605481106111e3576111e36111bf565b8481526001600160a01b0384166020820152608060408201525f6114c76080830185611431565b90506114d66060830184611490565b95945050505050565b5f602082840312156114ef575f5ffd5b5051919050565b82815260408101610d47602083018461149056fea164736f6c634300081b000a",
  "linkReferences": {},
  "deployedLinkReferences": {}
}