{
  "_format": "hh-sol-artifact-1",
  "contractName": "ConfidentialBomb",
  "sourceName": "contracts/ConfidentialBomb.sol",
  "abi": [
    {
      "anonymous": false,
      "inputs": [
        {
          "indexed": true,
          "internalType": "uint256",
          "name": "gameId",
          "type": "uint256"
        },
        {
          "indexed": true,
          "internalType": "address",
          "name": "player",
          "type": "address"
        },
        {
          "indexed": false,
          "internalType": "uint8",
          "name": "boardSize",
          "type": "uint8"
        },
        {
          "indexed": false,
          "internalType": "bytes32",
          "name": "commitHash",
          "type": "bytes32"
        }
      ],
      "name": "GameCreated",
      "type": "event"
    },
    {
      "anonymous": false,
      "inputs": [
        {
          "indexed": true,
          "internalType": "uint256",
          "name": "gameId",
          "type": "uint256"
        }
      ],
      "name": "GameEnded",
      "type": "event"
    },
    {
      "anonymous": false,
      "inputs": [
        {
          "indexed": true,
          "internalType": "uint256",
          "name": "gameId",
          "type": "uint256"
        },
        {
          "indexed": false,
          "internalType": "uint32[]",
          "name": "plainBoard",
          "type": "uint32[]"
        }
      ],
      "name": "GameRevealed",
      "type": "event"
    },
    {
      "anonymous": false,
      "inputs": [
        {
          "indexed": true,
          "internalType": "uint256",
          "name": "gameId",
          "type": "uint256"
        },
        {
          "indexed": false,
          "internalType": "uint256",
          "name": "seed",
          "type": "uint256"
        }
      ],
      "name": "SeedRevealed",
      "type": "event"
    },
    {
      "anonymous": false,
      "inputs": [
        {
          "indexed": true,
          "internalType": "uint256",
          "name": "gameId",
          "type": "uint256"
        },
        {
          "indexed": false,
          "internalType": "uint8",
          "name": "index",
          "type": "uint8"
        },
        {
          "indexed": false,
          "internalType": "ebool",
          "name": "isBomb",
          "type": "bytes32"
        },
        {
          "indexed": false,
          "internalType": "uint32",
          "name": "openedCount",
          "type": "uint32"
        }
      ],
      "name": "TilePicked",
      "type": "event"
    },
    {
      "inputs": [
        {
          "internalType": "externalEuint32[]",
          "name": "encryptedTiles",
          "type": "bytes32[]"
        },
        {
          "internalType": "bytes",
          "name": "proof",
          "type": "bytes"
        },
        {
          "internalType": "bytes32",
          "name": "commitHash",
          "type": "bytes32"
        },
        {
          "internalType": "uint8",
          "name": "boardSize",
          "type": "uint8"
        }
      ],
      "name": "createGame",
      "outputs": [
        {
          "internalType": "uint256",
          "name": "gameId",
          "type": "uint256"
        }
      ],
      "stateMutability": "nonpayable",
      "type": "function"
    },
    {
      "inputs": [
        {
          "internalType": "uint256",
          "name": "gameId",
          "type": "uint256"
        }
      ],
      "name": "endGame",
      "outputs": [],
      "stateMutability": "nonpayable",
      "type": "function"
    },
    {
      "inputs": [],
      "name": "gameCounter",
      "outputs": [
        {
          "internalType": "uint256",
          "name": "",
          "type": "uint256"
        }
      ],
      "stateMutability": "view",
      "type": "function"
    },
    {
      "inputs": [
        {
          "internalType": "uint256",
          "name": "",
          "type": "uint256"
        }
      ],
      "name": "games",
      "outputs": [
        {
          "internalType": "address",
          "name": "player",
          "type": "address"
        },
        {
          "internalType": "uint8",
          "name": "boardSize",
          "type": "uint8"
        },
        {
          "internalType": "bytes32",
          "name": "commitHash",
          "type": "bytes32"
        },
        {
          "internalType": "uint32",
          "name": "openedCount",
          "type": "uint32"
        },
        {
          "internalType": "enum ConfidentialBomb.State",
          "name": "state",
          "type": "uint8"
        }
      ],
      "stateMutability": "view",
      "type": "function"
    },
    {
      "inputs": [
        {
          "internalType": "uint256",
          "name": "gameId",
          "type": "uint256"
        }
      ],
      "name": "getBoardSize",
      "outputs": [
        {
          "internalType": "uint8",
          "name": "",
          "type": "uint8"
        }
      ],
      "stateMutability": "view",
      "type": "function"
    },
    {
      "inputs": [
        {
          "internalType": "uint256",
          "name": "gameId",
          "type": "uint256"
        }
      ],
      "name": "getCommit",
      "outputs": [
        {
          "internalType": "bytes32",
          "name": "",
          "type": "bytes32"
        }
      ],
      "stateMutability": "view",
      "type": "function"
    },
    {
      "inputs": [
        {
          "internalType": "uint256",
          "name": "gameId",
          "type": "uint256"
        }
      ],
      "name": "getOpenedCount",
      "outputs": [
        {
          "internalType": "uint32",
          "name": "",
          "type": "uint32"
        }
      ],
      "stateMutability": "view",
      "type": "function"
    },
    {
      "inputs": [
        {
          "internalType": "uint256",
          "name": "gameId",
          "type": "uint256"
        }
      ],
      "name": "getState",
      "outputs": [
        {
          "internalType": "enum ConfidentialBomb.State",
          "name": "",
          "type": "uint8"
        }
      ],
      "stateMutability": "view",
      "type": "function"
    },
    {
      "inputs": [
        {
          "internalType": "uint256",
          "name": "gameId",
          "type": "uint256"
        },
        {
          "internalType": "uint8",
          "name": "index",
          "type": "uint8"
        }
      ],
      "name": "isOpened",
      "outputs": [
        {
          "internalType": "bool",
          "name": "",
          "type": "bool"
        }
      ],
      "stateMutability": "view",
      "type": "function"
    },
    {
      "inputs": [
        {
          "internalType": "uint256",
          "name": "gameId",
          "type": "uint256"
        },
        {
          "internalType": "uint8",
          "name": "index",
          "type": "uint8"
        }
      ],
      "name": "pickTile",
      "outputs": [],
      "stateMutability": "nonpayable",
      "type": "function"
    },
    {
      "inputs": [],
      "name": "protocolId",
      "outputs": [
        {
          "internalType": "uint256",
          "name": "",
          "type": "uint256"
        }
      ],
      "stateMutability": "pure",
      "type": "function"
    },
    {
      "inputs": [
        {
          "internalType": "uint256",
          "name": "gameId",
          "type": "uint256"
        },
        {
          "internalType": "uint32[]",
          "name": "plainBoard",
          "type": "uint32[]"
        }
      ],
      "name": "revealGame",
      "outputs": [],
      "stateMutability": "nonpayable",
      "type": "function"
    },
    {
      "inputs": [
        {
          "internalType": "uint256",
          "name": "gameId",
          "type": "uint256"
        },
        {
          "internalType": "uint256",
          "name": "seed",
          "type": "uint256"
        }
      ],
      "name": "revealSeed",
      "outputs": [],
      "stateMutability": "nonpayable",
      "type": "function"
    }
  ],
  "bytecode": "0x608060405234801561000f575f5ffd5b5061018a6100ae604080516080810182525f80825260208201819052918101829052606081019190915250604080516080810182527350157cffd6bbfa2dece204a89ec419c23ef5755d815273cd3ab3bd6bcc0c0bf3e27912a92043e817b1cf69602082015273a02cda4ca3a71d7c46997716f4283aa851c2881291810191909152731364cbbf2cdf5032c47d8226a6f6fbd2afcdacac606082015290565b80517f9e7b61f58c47dc699ac88507c4f5bb9f121c03808c5676a8078fe583e464970080546001600160a01b03199081166001600160a01b039384161790915560208301517f9e7b61f58c47dc699ac88507c4f5bb9f121c03808c5676a8078fe583e46497018054831691841691909117905560408301517f9e7b61f58c47dc699ac88507c4f5bb9f121c03808c5676a8078fe583e46497028054831691841691909117905560608301517f9e7b61f58c47dc699ac88507c4f5bb9f121c03808c5676a8078fe583e46497038054909216921691909117905550565b6113fe806101975f395ff3fe608060405234801561000f575f5ffd5b50600436106100da575f3560e01c8063a50e519911610088578063cec07cec11610063578063cec07cec14610247578063d0399bb814610284578063da1f12ab14610297578063fcdbb8af1461029f575f5ffd5b8063a50e5199146101e6578063a874ec59146101f9578063cb94d49e14610234575f5ffd5b80632e0be39a116100b85780632e0be39a1461018f57806344c9af28146101975780637b4936c4146101d1575f5ffd5b80630d765395146100de578063117a5b901461010657806323d189681461016e575b5f5ffd5b6100f16100ec366004611089565b6102c1565b60405190151581526020015b60405180910390f35b61015d6101143660046110b3565b60016020525f90815260409020805460028201546003909201546001600160a01b0382169260ff600160a01b909304831692909163ffffffff8116916401000000009091041685565b6040516100fd9594939291906110f2565b61018161017c366004611173565b6102e0565b6040519081526020016100fd565b6101815f5481565b6101c46101a53660046110b3565b5f90815260016020526040902060030154640100000000900460ff1690565b6040516100fd9190611229565b6101e46101df366004611237565b610637565b005b6101e46101f4366004611089565b610783565b6102226102073660046110b3565b5f90815260016020526040902054600160a01b900460ff1690565b60405160ff90911681526020016100fd565b6101e461024236600461127f565b6109eb565b61026f6102553660046110b3565b5f9081526001602052604090206003015463ffffffff1690565b60405163ffffffff90911681526020016100fd565b6101e46102923660046110b3565b610b6d565b612711610181565b6101816102ad3660046110b3565b5f9081526001602052604090206002015490565b5f82815260026020526040902054600160ff83161b1615155b92915050565b5f5f8260ff16116103385760405162461bcd60e51b815260206004820152601260248201527f496e76616c696420626f6172642073697a65000000000000000000000000000060448201526064015b60405180910390fd5b60ff8216861461038a5760405162461bcd60e51b815260206004820152601360248201527f426f6172642073697a65206d69736d6174636800000000000000000000000000604482015260640161032f565b826103d75760405162461bcd60e51b815260206004820152600c60248201527f456d70747920636f6d6d69740000000000000000000000000000000000000000604482015260640161032f565b5f8260ff1667ffffffffffffffff8111156103f4576103f461129f565b60405190808252806020026020018201604052801561041d578160200160208202803683370190505b5090505f5b8360ff168110156104cd57610484898983818110610442576104426112b3565b9050602002013588888080601f0160208091040260200160405190810160405280939291908181526020018383808284375f92019190915250610c7792505050565b828281518110610496576104966112b3565b6020026020010181815250506104c48282815181106104b7576104b76112b3565b6020026020010151610c8b565b50600101610422565b505f5f81546104db906112db565b91829055506040805160c08101825233815260ff86166020820152908101839052606081018690525f608082018190529193509060a08201525f83815260016020818152604092839020845181548684015160ff16600160a01b027fffffffffffffffffffffff0000000000000000000000000000000000000000009091166001600160a01b0390921691909117178155928401518051610583938501929190910190611020565b5060608201516002820155608082015160038201805463ffffffff90921663ffffffff1983168117825560a08501519264ffffffffff1916176401000000008360018111156105d4576105d46110ca565b021790555050505f82815260026020908152604080832092909255815160ff86168152908101869052339184917f9b5f65613c152e8f87eeb5087336d0720fddec7358ab047492a3e6a4719da85a910160405180910390a3509695505050505050565b5f83815260016020526040902080546001600160a01b0316331461068d5760405162461bcd60e51b815260206004820152600d60248201526c4e6f7420796f75722067616d6560981b604482015260640161032f565b60016003820154640100000000900460ff1660018111156106b0576106b06110ca565b146106e95760405162461bcd60e51b8152602060048201526009602482015268115b9908199a5c9cdd60ba1b604482015260640161032f565b8054600160a01b900460ff1682146107435760405162461bcd60e51b815260206004820152600d60248201527f53697a65206d69736d6174636800000000000000000000000000000000000000604482015260640161032f565b837f403f19ed10442511d95a4b4146ccc435952cb27bba78303b17a01ee8407cac7284846040516107759291906112f3565b60405180910390a250505050565b5f828152600160205260408120906003820154640100000000900460ff1660018111156107b2576107b26110ca565b146107ff5760405162461bcd60e51b815260206004820152600a60248201527f47616d6520656e64656400000000000000000000000000000000000000000000604482015260640161032f565b80546001600160a01b031633146108485760405162461bcd60e51b815260206004820152600d60248201526c4e6f7420796f75722067616d6560981b604482015260640161032f565b805460ff600160a01b9091048116908316106108a65760405162461bcd60e51b815260206004820152600960248201527f42616420696e6465780000000000000000000000000000000000000000000000604482015260640161032f565b5f83815260026020526040902054600160ff84161b8082161561090b5760405162461bcd60e51b815260206004820152600e60248201527f416c7265616479206f70656e6564000000000000000000000000000000000000604482015260640161032f565b5f858152600260205260408120838317905560018401805460ff8716908110610936576109366112b3565b905f5260205f20015490505f610955826109506001610c9a565b610cac565b6003860180549192506001915f9061097490849063ffffffff16611340565b82546101009290920a63ffffffff81810219909316918316021790915560038701546040805160ff8b1681526020810186905291909216918101919091528891507f555c3f53b8eb64f9891da4e5d9512dd08543b72d22f4f3e2fede2f89c03185cd9060600160405180910390a250505050505050565b5f82815260016020526040902080546001600160a01b03163314610a415760405162461bcd60e51b815260206004820152600d60248201526c4e6f7420796f75722067616d6560981b604482015260640161032f565b60016003820154640100000000900460ff166001811115610a6457610a646110ca565b14610a9d5760405162461bcd60e51b8152602060048201526009602482015268115b9908199a5c9cdd60ba1b604482015260640161032f565b805460408051602081018590526001600160a01b03831691810191909152600160a01b90910460ff1660608201525f9060800160405160208183030381529060405280519060200120905081600201548114610b3b5760405162461bcd60e51b815260206004820152600f60248201527f436f6d6d6974206d69736d617463680000000000000000000000000000000000604482015260640161032f565b837f6ea81813eb74150321f70c7042dd54943d3d56e95b59bc3e7cd62a8f7622f98d8460405161077591815260200190565b5f81815260016020526040902080546001600160a01b03163314610bc35760405162461bcd60e51b815260206004820152600d60248201526c4e6f7420796f75722067616d6560981b604482015260640161032f565b5f6003820154640100000000900460ff166001811115610be557610be56110ca565b14610c325760405162461bcd60e51b815260206004820152600d60248201527f416c726561647920656e64656400000000000000000000000000000000000000604482015260640161032f565b60038101805464ff00000000191664010000000017905560405182907fce24807f7e4b60b4e641462f13029fa5e5f79075bbc3f8e5cd43ecd19661d760905f90a25050565b5f610c8483836004610cda565b9392505050565b5f610c968230610dfa565b5090565b5f6102da8263ffffffff166004610e83565b5f82610cbe57610cbb5f610c9a565b92505b81610ccf57610ccc5f610c9a565b91505b610c8483835f610f40565b7f9e7b61f58c47dc699ac88507c4f5bb9f121c03808c5676a8078fe583e46497015460405163196d0b9b60e01b81525f917f9e7b61f58c47dc699ac88507c4f5bb9f121c03808c5676a8078fe583e4649700916001600160a01b039091169063196d0b9b90610d5390889033908990899060040161136c565b6020604051808303815f875af1158015610d6f573d5f5f3e3d5ffd5b505050506040513d601f19601f82011682018060405250810190610d9391906113c6565b8154604051630f8e573b60e21b8152600481018390523360248201529193506001600160a01b031690633e395cec906044015f604051808303815f87803b158015610ddc575f5ffd5b505af1158015610dee573d5f5f3e3d5ffd5b50505050509392505050565b5f7f9e7b61f58c47dc699ac88507c4f5bb9f121c03808c5676a8078fe583e46497008054604051635ca4b5b160e11b8152600481018690526001600160a01b03858116602483015292935091169063b9496b62906044015f604051808303815f87803b158015610e68575f5ffd5b505af1158015610e7a573d5f5f3e3d5ffd5b50505050505050565b7f9e7b61f58c47dc699ac88507c4f5bb9f121c03808c5676a8078fe583e464970154604051639cd07acb60e01b81525f917f9e7b61f58c47dc699ac88507c4f5bb9f121c03808c5676a8078fe583e4649700916001600160a01b0390911690639cd07acb90610ef890879087906004016113dd565b6020604051808303815f875af1158015610f14573d5f5f3e3d5ffd5b505050506040513d601f19601f82011682018060405250810190610f3891906113c6565b949350505050565b5f5f8215610f535750600160f81b610f56565b505f5b5f7f9e7b61f58c47dc699ac88507c4f5bb9f121c03808c5676a8078fe583e4649700600181015460405163f77f3f1d60e01b815260048101899052602481018890527fff00000000000000000000000000000000000000000000000000000000000000851660448201529192506001600160a01b03169063f77f3f1d906064016020604051808303815f875af1158015610ff2573d5f5f3e3d5ffd5b505050506040513d601f19601f8201168201806040525081019061101691906113c6565b9695505050505050565b828054828255905f5260205f20908101928215611059579160200282015b8281111561105957825182559160200191906001019061103e565b50610c969291505b80821115610c96575f8155600101611061565b803560ff81168114611084575f5ffd5b919050565b5f5f6040838503121561109a575f5ffd5b823591506110aa60208401611074565b90509250929050565b5f602082840312156110c3575f5ffd5b5035919050565b634e487b7160e01b5f52602160045260245ffd5b600281106110ee576110ee6110ca565b9052565b6001600160a01b038616815260ff851660208201526040810184905263ffffffff8316606082015260a0810161101660808301846110de565b5f5f83601f84011261113b575f5ffd5b50813567ffffffffffffffff811115611152575f5ffd5b6020830191508360208260051b850101111561116c575f5ffd5b9250929050565b5f5f5f5f5f5f60808789031215611188575f5ffd5b863567ffffffffffffffff81111561119e575f5ffd5b6111aa89828a0161112b565b909750955050602087013567ffffffffffffffff8111156111c9575f5ffd5b8701601f810189136111d9575f5ffd5b803567ffffffffffffffff8111156111ef575f5ffd5b896020828401011115611200575f5ffd5b602091909101945092506040870135915061121d60608801611074565b90509295509295509295565b602081016102da82846110de565b5f5f5f60408486031215611249575f5ffd5b83359250602084013567ffffffffffffffff811115611266575f5ffd5b6112728682870161112b565b9497909650939450505050565b5f5f60408385031215611290575f5ffd5b50508035926020909101359150565b634e487b7160e01b5f52604160045260245ffd5b634e487b7160e01b5f52603260045260245ffd5b634e487b7160e01b5f52601160045260245ffd5b5f600182016112ec576112ec6112c7565b5060010190565b602080825281018290525f8360408301825b8581101561133657823563ffffffff8116808214611321575f5ffd5b83525060209283019290910190600101611305565b5095945050505050565b63ffffffff81811683821601908111156102da576102da6112c7565b605481106110ee576110ee6110ca565b8481526001600160a01b0384166020820152608060408201525f8351806080840152806020860160a085015e5f60a0828501015260a0601f19601f8301168401019150506113bd606083018461135c565b95945050505050565b5f602082840312156113d6575f5ffd5b5051919050565b82815260408101610c84602083018461135c56fea164736f6c634300081b000a",
  "linkReferences": {},
  "deployedLinkReferences": {}
}