{
  "_format": "hh-sol-artifact-1",
  "contractName": "ConfidentialBomb",
  "sourceName": "contracts/ConfidentialBomb.sol",
  "abi": [
    {
      "anonymous": false,
      "inputs": [
        {
          "indexed": true,
          "internalType": "uint256",
          "name": "gameId",
          "type": "uint256"
        },
        {
          "indexed": true,
          "internalType": "address",
          "name": "player",
          "type": "address"
        },
        {
          "indexed": false,
          "internalType": "uint8",
          "name": "boardSize",
          "type": "uint8"
        },
        {
          "indexed": false,
          "internalType": "bytes32",
          "name": "commitHash",
          "type": "bytes32"
        }
      ],
      "name": "GameCreated",
      "type": "event"
    },
    {
      "anonymous": false,
      "inputs": [
        {
          "indexed": true,
          "internalType": "uint256",
          "name": "gameId",
          "type": "uint256"
        }
      ],
      "name": "GameEnded",
      "type": "event"
    },
    {
      "anonymous": false,
      "inputs": [
        {
          "indexed": true,
          "internalType": "uint256",
          "name": "gameId",
          "type": "uint256"
        },
        {
          "indexed": false,
          "internalType": "uint64",
          "name": "plainBoard",
          "type": "uint64"
        }
      ],
      "name": "GameRevealed",
      "type": "event"
    },
    {
      "anonymous": false,
      "inputs": [
        {
          "indexed": true,
          "internalType": "uint256",
          "name": "gameId",
          "type": "uint256"
        },
        {
          "indexed": false,
          "internalType": "uint256",
          "name": "seed",
          "type": "uint256"
        }
      ],
      "name": "SeedRevealed",
      "type": "event"
    },
    {
      "anonymous": false,
      "inputs": [
        {
          "indexed": true,
          "internalType": "uint256",
          "name": "gameId",
          "type": "uint256"
        },
        {
          "indexed": false,
          "internalType": "uint8",
          "name": "index",
          "type": "uint8"
        },
        {
          "indexed": false,
          "internalType": "bytes",
          "name": "isBombCiphertext",
          "type": "bytes"
        },
        {
          "indexed": false,
          "internalType": "uint32",
          "name": "openedCount",
          "type": "uint32"
        }
      ],
      "name": "TilePicked",
      "type": "event"
    },
    {
      "inputs": [
        {
          "internalType": "externalEuint64",
          "name": "encryptedBoard",
          "type": "bytes32"
        },
        {
          "internalType": "bytes",
          "name": "proof",
          "type": "bytes"
        },
        {
          "internalType": "bytes32",
          "name": "commitHash",
          "type": "bytes32"
        },
        {
          "internalType": "uint8",
          "name": "boardSize",
          "type": "uint8"
        }
      ],
      "name": "createGame",
      "outputs": [
        {
          "internalType": "uint256",
          "name": "gameId",
          "type": "uint256"
        }
      ],
      "stateMutability": "nonpayable",
      "type": "function"
    },
    {
      "inputs": [
        {
          "internalType": "uint256",
          "name": "gameId",
          "type": "uint256"
        }
      ],
      "name": "endGame",
      "outputs": [],
      "stateMutability": "nonpayable",
      "type": "function"
    },
    {
      "inputs": [],
      "name": "gameCounter",
      "outputs": [
        {
          "internalType": "uint256",
          "name": "",
          "type": "uint256"
        }
      ],
      "stateMutability": "view",
      "type": "function"
    },
    {
      "inputs": [
        {
          "internalType": "uint256",
          "name": "",
          "type": "uint256"
        }
      ],
      "name": "games",
      "outputs": [
        {
          "internalType": "address",
          "name": "player",
          "type": "address"
        },
        {
          "internalType": "uint8",
          "name": "boardSize",
          "type": "uint8"
        },
        {
          "internalType": "euint64",
          "name": "encryptedBoard",
          "type": "bytes32"
        },
        {
          "internalType": "bytes32",
          "name": "commitHash",
          "type": "bytes32"
        },
        {
          "internalType": "uint32",
          "name": "openedCount",
          "type": "uint32"
        },
        {
          "internalType": "enum ConfidentialBomb.State",
          "name": "state",
          "type": "uint8"
        }
      ],
      "stateMutability": "view",
      "type": "function"
    },
    {
      "inputs": [
        {
          "internalType": "uint256",
          "name": "gameId",
          "type": "uint256"
        }
      ],
      "name": "getCommit",
      "outputs": [
        {
          "internalType": "bytes32",
          "name": "",
          "type": "bytes32"
        }
      ],
      "stateMutability": "view",
      "type": "function"
    },
    {
      "inputs": [
        {
          "internalType": "uint256",
          "name": "gameId",
          "type": "uint256"
        }
      ],
      "name": "getEncryptedBoard",
      "outputs": [
        {
          "internalType": "euint64",
          "name": "",
          "type": "bytes32"
        }
      ],
      "stateMutability": "view",
      "type": "function"
    },
    {
      "inputs": [
        {
          "internalType": "uint256",
          "name": "gameId",
          "type": "uint256"
        }
      ],
      "name": "getState",
      "outputs": [
        {
          "internalType": "enum ConfidentialBomb.State",
          "name": "",
          "type": "uint8"
        }
      ],
      "stateMutability": "view",
      "type": "function"
    },
    {
      "inputs": [
        {
          "internalType": "uint256",
          "name": "gameId",
          "type": "uint256"
        },
        {
          "internalType": "uint8",
          "name": "index",
          "type": "uint8"
        }
      ],
      "name": "isOpened",
      "outputs": [
        {
          "internalType": "bool",
          "name": "",
          "type": "bool"
        }
      ],
      "stateMutability": "view",
      "type": "function"
    },
    {
      "inputs": [
        {
          "internalType": "uint256",
          "name": "gameId",
          "type": "uint256"
        },
        {
          "internalType": "uint8",
          "name": "index",
          "type": "uint8"
        }
      ],
      "name": "pickTile",
      "outputs": [],
      "stateMutability": "nonpayable",
      "type": "function"
    },
    {
      "inputs": [],
      "name": "protocolId",
      "outputs": [
        {
          "internalType": "uint256",
          "name": "",
          "type": "uint256"
        }
      ],
      "stateMutability": "pure",
      "type": "function"
    },
    {
      "inputs": [
        {
          "internalType": "uint256",
          "name": "gameId",
          "type": "uint256"
        },
        {
          "internalType": "uint64",
          "name": "plainBoard",
          "type": "uint64"
        }
      ],
      "name": "revealGame",
      "outputs": [],
      "stateMutability": "nonpayable",
      "type": "function"
    },
    {
      "inputs": [
        {
          "internalType": "uint256",
          "name": "gameId",
          "type": "uint256"
        },
        {
          "internalType": "uint256",
          "name": "seed",
          "type": "uint256"
        }
      ],
      "name": "revealSeed",
      "outputs": [],
      "stateMutability": "nonpayable",
      "type": "function"
    }
  ],
  "bytecode": "0x608060405234801561000f575f5ffd5b5061018a6100ae604080516080810182525f80825260208201819052918101829052606081019190915250604080516080810182527350157cffd6bbfa2dece204a89ec419c23ef5755d815273cd3ab3bd6bcc0c0bf3e27912a92043e817b1cf69602082015273a02cda4ca3a71d7c46997716f4283aa851c2881291810191909152731364cbbf2cdf5032c47d8226a6f6fbd2afcdacac606082015290565b80517f9e7b61f58c47dc699ac88507c4f5bb9f121c03808c5676a8078fe583e464970080546001600160a01b03199081166001600160a01b039384161790915560208301517f9e7b61f58c47dc699ac88507c4f5bb9f121c03808c5676a8078fe583e46497018054831691841691909117905560408301517f9e7b61f58c47dc699ac88507c4f5bb9f121c03808c5676a8078fe583e46497028054831691841691909117905560608301517f9e7b61f58c47dc699ac88507c4f5bb9f121c03808c5676a8078fe583e46497038054909216921691909117905550565b6113ab806101975f395ff3fe608060405234801561000f575f5ffd5b50600436106100cf575f3560e01c806385a3d46e1161007d578063d0399bb811610058578063d0399bb81461022b578063da1f12ab1461023e578063fcdbb8af14610246575f5ffd5b806385a3d46e146101f0578063a50e519914610205578063cb94d49e14610218575f5ffd5b806340658331116100ad578063406583311461018057806344c9af28146101a35780634af72be5146101dd575f5ffd5b80630d765395146100d3578063117a5b90146100fb5780632e0be39a1461016a575b5f5ffd5b6100e66100e13660046110d0565b610268565b60405190151581526020015b60405180910390f35b6101586101093660046110fa565b600160208190525f918252604090912080549181015460028201546003909201546001600160a01b0384169360ff600160a01b9091048116939163ffffffff8116916401000000009091041686565b6040516100f296959493929190611139565b6101725f5481565b6040519081526020016100f2565b61017261018e3660046110fa565b5f908152600160208190526040909120015490565b6101d06101b13660046110fa565b5f90815260016020526040902060030154640100000000900460ff1690565b6040516100f29190611184565b6101726101eb366004611192565b610291565b6102036101fe366004611223565b610504565b005b6102036102133660046110d0565b61060e565b61020361022636600461125d565b6108c2565b6102036102393660046110fa565b610a66565b612711610172565b6101726102543660046110fa565b5f9081526001602052604090206002015490565b5f82815260026020526040902054600160ff83161b1667ffffffffffffffff1615155b92915050565b5f5f8260ff161180156102a8575060408260ff1611155b6102f95760405162461bcd60e51b815260206004820152601760248201527f426f6172642073697a65206d75737420626520312d363400000000000000000060448201526064015b60405180910390fd5b826103465760405162461bcd60e51b815260206004820152600c60248201527f456d70747920636f6d6d6974000000000000000000000000000000000000000060448201526064016102f0565b5f6103868787878080601f0160208091040260200160405190810160405280939291908181526020018383808284375f92019190915250610b7092505050565b905061039181610b84565b5061039c8133610b93565b505f5f81546103aa90611291565b91829055506040805160c08101825233815260ff86166020820152908101839052606081018690525f608082018190529193509060a08201525f83815260016020818152604092839020845181549286015160ff16600160a01b027fffffffffffffffffffffff0000000000000000000000000000000000000000009093166001600160a01b0390911617919091178155918301518282015560608301516002830155608083015160038301805463ffffffff90921663ffffffff1983168117825560a086015193919264ffffffffff1916179064010000000090849081111561049657610496611111565b021790555050505f82815260026020908152604091829020805467ffffffffffffffff19169055815160ff86168152908101869052339184917f9b5f65613c152e8f87eeb5087336d0720fddec7358ab047492a3e6a4719da85a910160405180910390a35095945050505050565b5f82815260016020526040902080546001600160a01b0316331461055a5760405162461bcd60e51b815260206004820152600d60248201526c4e6f7420796f75722067616d6560981b60448201526064016102f0565b60016003820154640100000000900460ff16600181111561057d5761057d611111565b146105ca5760405162461bcd60e51b815260206004820152601860248201527f47616d65206d75737420626520656e646564206669727374000000000000000060448201526064016102f0565b60405167ffffffffffffffff8316815283907f9e740e12d5327b2d79a04116a419913494ec23d516579a9e05718fc3840e00599060200160405180910390a2505050565b5f828152600160205260408120906003820154640100000000900460ff16600181111561063d5761063d611111565b1461068a5760405162461bcd60e51b815260206004820152600a60248201527f47616d6520656e6465640000000000000000000000000000000000000000000060448201526064016102f0565b80546001600160a01b031633146106d35760405162461bcd60e51b815260206004820152600d60248201526c4e6f7420796f75722067616d6560981b60448201526064016102f0565b805460ff600160a01b9091048116908316106107315760405162461bcd60e51b815260206004820152600d60248201527f496e76616c696420696e6465780000000000000000000000000000000000000060448201526064016102f0565b5f8381526002602052604090205467ffffffffffffffff80821691600160ff86161b9190821616156107a55760405162461bcd60e51b815260206004820152600e60248201527f416c7265616479206f70656e656400000000000000000000000000000000000060448201526064016102f0565b5f858152600260205260408120805467ffffffffffffffff191683851767ffffffffffffffff1617905560018401546107de9086610ba5565b90505f6107f4826107ef6001610bc6565b610bdc565b90505f61080a826108056001610bc6565b610c0a565b60405160200161081c91815260200190565b60408051601f198184030181529190526003870180549192506001915f9061084b90849063ffffffff166112a9565b92506101000a81548163ffffffff021916908363ffffffff160217905550877f20d672e92f8b0f858e55f033f2a479d03ea1b66d505367546b096f478a9262e28883896003015f9054906101000a900463ffffffff166040516108b0939291906112f3565b60405180910390a25050505050505050565b5f82815260016020526040902080546001600160a01b031633146109185760405162461bcd60e51b815260206004820152600d60248201526c4e6f7420796f75722067616d6560981b60448201526064016102f0565b60016003820154640100000000900460ff16600181111561093b5761093b611111565b146109885760405162461bcd60e51b815260206004820152601860248201527f47616d65206d75737420626520656e646564206669727374000000000000000060448201526064016102f0565b805460408051602081018590526001600160a01b03831691810191909152600160a01b90910460ff1660608201525f9060800160405160208183030381529060405280519060200120905081600201548114610a265760405162461bcd60e51b815260206004820152600f60248201527f436f6d6d6974206d69736d61746368000000000000000000000000000000000060448201526064016102f0565b837f6ea81813eb74150321f70c7042dd54943d3d56e95b59bc3e7cd62a8f7622f98d84604051610a5891815260200190565b60405180910390a250505050565b5f81815260016020526040902080546001600160a01b03163314610abc5760405162461bcd60e51b815260206004820152600d60248201526c4e6f7420796f75722067616d6560981b60448201526064016102f0565b5f6003820154640100000000900460ff166001811115610ade57610ade611111565b14610b2b5760405162461bcd60e51b815260206004820152600d60248201527f416c726561647920656e6465640000000000000000000000000000000000000060448201526064016102f0565b60038101805464ff00000000191664010000000017905560405182907fce24807f7e4b60b4e641462f13029fa5e5f79075bbc3f8e5cd43ecd19661d760905f90a25050565b5f610b7d83836005610c38565b9392505050565b5f610b8f8230610d58565b5090565b5f610b9e8383610d58565b5090919050565b5f82610bb757610bb45f610bc6565b92505b610b7d8360ff84166001610de1565b5f61028b8267ffffffffffffffff166005610ec4565b5f82610bee57610beb5f610bc6565b92505b81610bff57610bfc5f610bc6565b91505b610b7d83835f610f81565b5f82610c1c57610c195f610bc6565b92505b81610c2d57610c2a5f610bc6565b91505b610b7d83835f61101e565b7f9e7b61f58c47dc699ac88507c4f5bb9f121c03808c5676a8078fe583e46497015460405163196d0b9b60e01b81525f917f9e7b61f58c47dc699ac88507c4f5bb9f121c03808c5676a8078fe583e4649700916001600160a01b039091169063196d0b9b90610cb1908890339089908990600401611334565b6020604051808303815f875af1158015610ccd573d5f5f3e3d5ffd5b505050506040513d601f19601f82011682018060405250810190610cf19190611373565b8154604051630f8e573b60e21b8152600481018390523360248201529193506001600160a01b031690633e395cec906044015f604051808303815f87803b158015610d3a575f5ffd5b505af1158015610d4c573d5f5f3e3d5ffd5b50505050509392505050565b5f7f9e7b61f58c47dc699ac88507c4f5bb9f121c03808c5676a8078fe583e46497008054604051635ca4b5b160e11b8152600481018690526001600160a01b03858116602483015292935091169063b9496b62906044015f604051808303815f87803b158015610dc6575f5ffd5b505af1158015610dd8573d5f5f3e3d5ffd5b50505050505050565b5f5f8215610df45750600160f81b610df7565b505f5b7f9e7b61f58c47dc699ac88507c4f5bb9f121c03808c5676a8078fe583e4649701546040516348fcc7ff60e11b815260048101879052602481018690526001600160f81b0319831660448201527f9e7b61f58c47dc699ac88507c4f5bb9f121c03808c5676a8078fe583e4649700916001600160a01b0316906391f98ffe906064015b6020604051808303815f875af1158015610e96573d5f5f3e3d5ffd5b505050506040513d601f19601f82011682018060405250810190610eba9190611373565b9695505050505050565b7f9e7b61f58c47dc699ac88507c4f5bb9f121c03808c5676a8078fe583e464970154604051639cd07acb60e01b81525f917f9e7b61f58c47dc699ac88507c4f5bb9f121c03808c5676a8078fe583e4649700916001600160a01b0390911690639cd07acb90610f39908790879060040161138a565b6020604051808303815f875af1158015610f55573d5f5f3e3d5ffd5b505050506040513d601f19601f82011682018060405250810190610f799190611373565b949350505050565b5f5f8215610f945750600160f81b610f97565b505f5b7f9e7b61f58c47dc699ac88507c4f5bb9f121c03808c5676a8078fe583e46497015460405163d99882d560e01b815260048101879052602481018690526001600160f81b0319831660448201527f9e7b61f58c47dc699ac88507c4f5bb9f121c03808c5676a8078fe583e4649700916001600160a01b03169063d99882d590606401610e7a565b5f5f82156110315750600160f81b611034565b505f5b7f9e7b61f58c47dc699ac88507c4f5bb9f121c03808c5676a8078fe583e46497015460405163f77f3f1d60e01b815260048101879052602481018690526001600160f81b0319831660448201527f9e7b61f58c47dc699ac88507c4f5bb9f121c03808c5676a8078fe583e4649700916001600160a01b03169063f77f3f1d90606401610e7a565b803560ff811681146110cb575f5ffd5b919050565b5f5f604083850312156110e1575f5ffd5b823591506110f1602084016110bb565b90509250929050565b5f6020828403121561110a575f5ffd5b5035919050565b634e487b7160e01b5f52602160045260245ffd5b6002811061113557611135611111565b9052565b6001600160a01b038716815260ff86166020820152604081018590526060810184905263ffffffff8316608082015260c0810161117960a0830184611125565b979650505050505050565b6020810161028b8284611125565b5f5f5f5f5f608086880312156111a6575f5ffd5b85359450602086013567ffffffffffffffff8111156111c3575f5ffd5b8601601f810188136111d3575f5ffd5b803567ffffffffffffffff8111156111e9575f5ffd5b8860208284010111156111fa575f5ffd5b6020919091019450925060408601359150611217606087016110bb565b90509295509295909350565b5f5f60408385031215611234575f5ffd5b82359150602083013567ffffffffffffffff81168114611252575f5ffd5b809150509250929050565b5f5f6040838503121561126e575f5ffd5b50508035926020909101359150565b634e487b7160e01b5f52601160045260245ffd5b5f600182016112a2576112a261127d565b5060010190565b63ffffffff818116838216019081111561028b5761028b61127d565b5f81518084528060208401602086015e5f602082860101526020601f19601f83011685010191505092915050565b60ff84168152606060208201525f61130e60608301856112c5565b905063ffffffff83166040830152949350505050565b6054811061113557611135611111565b8481526001600160a01b0384166020820152608060408201525f61135b60808301856112c5565b905061136a6060830184611324565b95945050505050565b5f60208284031215611383575f5ffd5b5051919050565b82815260408101610b7d602083018461132456fea164736f6c634300081b000a",
  "linkReferences": {},
  "deployedLinkReferences": {}
}